:020000040000fa
:080000000002040000000000f2
:020000040000fa
:04000800b002000042
:020000040000fa
:04000c00b00200003e
:020000040000fa
:04001000b00200003a
:020000040000fa
:04001400b002000036
:020000040000fa
:04001800b002000032
:020000040000fa
:04001c00b00200002e
:020000040000fa
:04002000b00200002a
:020000040000fa
:04002400b002000026
:020000040000fa
:04002800b002000022
:020000040000fa
:04002c00b00200001e
:020000040000fa
:04003000b00200001a
:020000040000fa
:040034008c24000018
:020000040000fa
:04003800b002000012
:020000040000fa
:04003c00b00200000e
:020000040000fa
:04004000b00200000a
:020000040000fa
:04004400b002000006
:020000040000fa
:04004800b002000002
:020000040000fa
:04004c00b0020000fe
:020000040000fa
:04005000b0020000fa
:020000040000fa
:04005400b0020000f6
:020000040000fa
:04005800b0020000f2
:020000040000fa
:04005c00b0020000ee
:020000040000fa
:04006000b0020000ea
:020000040000fa
:04006400b0020000e6
:020000040000fa
:04006800b0020000e2
:020000040000fa
:04006c00b0020000de
:020000040000fa
:04007000b0020000da
:020000040000fa
:04007400b0020000d6
:020000040000fa
:04007800b0020000d2
:020000040000fa
:04007c00b0020000ce
:020000040000fa
:04008000b0020000ca
:020000040000fa
:04008400b0020000c6
:020000040000fa
:04008800b0020000c2
:020000040000fa
:04008c00b0020000be
:020000040000fa
:04009000b0020000ba
:020000040000fa
:04009400b0020000b6
:020000040000fa
:04009800b0020000b2
:020000040000fa
:04009c00b0020000ae
:020000040000fa
:0400a000b0020000aa
:020000040000fa
:0400a400b0020000a6
:020000040000fa
:0400a800b0020000a2
:020000040000fa
:0400ac00b00200009e
:020000040000fa
:0400b000b00200009a
:020000040000fa
:0400b400b002000096
:020000040000fa
:0400b800b002000092
:020000040000fa
:0400bc00b00200008e
:020000040000fa
:0400c000b00200008a
:020000040000fa
:0400c400b002000086
:020000040000fa
:0400c800b002000082
:020000040000fa
:0400cc00b00200007e
:020000040000fa
:0400d000b00200007a
:020000040000fa
:0400d400b002000076
:020000040000fa
:0400d800b002000072
:020000040000fa
:0400dc00b00200006e
:020000040000fa
:0400e000b00200006a
:020000040000fa
:0400e400b002000066
:020000040000fa
:0400e800b002000062
:020000040000fa
:0400ec00b00200005e
:020000040000fa
:0400f000b00200005a
:020000040000fa
:0400f400b002000056
:020000040000fa
:0400f800b002000052
:020000040000fa
:0400fc00b00200004e
:020000040000fa
:04010000b002000049
:020000040000fa
:04010400b002000045
:020000040000fa
:04010800b002000041
:020000040000fa
:04010c00b00200003d
:020000040000fa
:04011000b002000039
:020000040000fa
:04011400b002000035
:020000040000fa
:04011800b002000031
:020000040000fa
:04011c00b00200002d
:020000040000fa
:04012000b002000029
:020000040000fa
:04012400b002000025
:020000040000fa
:04012800b002000021
:020000040000fa
:04012c00b00200001d
:020000040000fa
:04013000b002000019
:020000040000fa
:04013400b002000015
:020000040000fa
:04013800b002000011
:020000040000fa
:04013c00b00200000d
:020000040000fa
:04014000b002000009
:020000040000fa
:04014400b002000005
:020000040000fa
:04014800b002000001
:020000040000fa
:04014c00b0020000fd
:020000040000fa
:04015000b0020000f9
:020000040000fa
:04015400b0020000f5
:020000040000fa
:04015800b0020000f1
:020000040000fa
:04015c00b0020000ed
:020000040000fa
:04016000b0020000e9
:020000040000fa
:04016400b0020000e5
:020000040000fa
:04016800b0020000e1
:020000040000fa
:04016c00b0020000dd
:020000040000fa
:04017000b0020000d9
:020000040000fa
:04017400b0020000d5
:020000040000fa
:04017800b0020000d1
:020000040000fa
:04017c00b0020000cd
:020000040000fa
:04018000b0020000c9
:020000040000fa
:04018400b0020000c5
:020000040000fa
:04018800b0020000c1
:020000040000fa
:04018c00b0020000bd
:020000040000fa
:04019000b0020000b9
:020000040000fa
:04019400b0020000b5
:020000040000fa
:04019800b0020000b1
:020000040000fa
:04019c00b0020000ad
:020000040000fa
:04020800b002000040
:020000040000fa
:04020c00b00200003c
:020000040000fa
:04021000b002000038
:020000040000fa
:04021400b002000034
:020000040000fa
:04021800b002000030
:020000040000fa
:04021c00b00200002c
:020000040000fa
:04022000b002000028
:020000040000fa
:04022400b002000024
:020000040000fa
:04022800b002000020
:020000040000fa
:04022c00b00200001c
:020000040000fa
:04023000b002000018
:020000040000fa
:04023400b002000014
:020000040000fa
:04023800b002000010
:020000040000fa
:04023c00b00200000c
:020000040000fa
:04024000b002000008
:020000040000fa
:04024400b002000004
:020000040000fa
:04024800b002000000
:020000040000fa
:04024c00b0020000fc
:020000040000fa
:04025000b0020000f8
:020000040000fa
:04025400b0020000f4
:020000040000fa
:04025800b0020000f0
:020000040000fa
:04025c00b0020000ec
:020000040000fa
:04026000b0020000e8
:020000040000fa
:04026400b0020000e4
:020000040000fa
:04026800b0020000e0
:020000040000fa
:04026c00b0020000dc
:020000040000fa
:04027000b0020000d8
:020000040000fa
:04027400b0020000d4
:020000040000fa
:04027800b0020000d0
:020000040000fa
:04027c00b0020000cc
:020000040000fa
:04028000b0020000c8
:020000040000fa
:04028400b0020000c4
:020000040000fa
:04028800b0020000c0
:020000040000fa
:04028c00b0020000bc
:020000040000fa
:04029000b0020000b8
:020000040000fa
:04029400b0020000b4
:020000040000fa
:04029800b0020000b0
:020000040000fa
:04029c00b0020000ac
:020000040000fa
:0402a000b0020000a8
:020000040000fa
:0402a400b0020000a4
:020000040000fa
:0402a800b0020000a0
:020000040000fa
:0402ac00b00200009c
:020000040000fa
:0402b000b002000098
:020000040000fa
:0402b400b002000094
:020000040000fa
:0402b800b002000090
:020000040000fa
:0402bc00b00200008c
:020000040000fa
:0402c000b002000088
:020000040000fa
:0402c400b002000084
:020000040000fa
:0402c800b002000080
:020000040000fa
:0402cc00b00200007c
:020000040000fa
:0402d000b002000078
:020000040000fa
:0402d400b002000074
:020000040000fa
:0402d800b002000070
:020000040000fa
:0402dc00b00200006c
:020000040000fa
:0402e000b002000068
:020000040000fa
:0402e400b002000064
:020000040000fa
:0402e800b002000060
:020000040000fa
:0402ec00b00200005c
:020000040000fa
:0402f000b002000058
:020000040000fa
:0402f400b002000054
:020000040000fa
:0402f800b002000050
:020000040000fa
:0402fc00b00200004c
:020000040000fa
:04030000b002000047
:020000040000fa
:04030400b002000043
:020000040000fa
:04030800b00200003f
:020000040000fa
:04030c00b00200003b
:020000040000fa
:04031000b002000037
:020000040000fa
:04031400b002000033
:020000040000fa
:04031800b00200002f
:020000040000fa
:04031c00b00200002b
:020000040000fa
:04032000b002000027
:020000040000fa
:04032400b002000023
:020000040000fa
:04032800b00200001f
:020000040000fa
:04032c00b00200001b
:020000040000fa
:04033000b002000017
:020000040000fa
:04033400b002000013
:020000040000fa
:04033800b00200000f
:020000040000fa
:04033c00b00200000b
:020000040000fa
:04034000b002000007
:020000040000fa
:04034400b002000003
:020000040000fa
:04034800b0020000ff
:020000040000fa
:04034c00b0020000fb
:020000040000fa
:04035000b0020000f7
:020000040000fa
:04035400b0020000f3
:020000040000fa
:04035800b0020000ef
:020000040000fa
:04035c00b0020000eb
:020000040000fa
:04036000b0020000e7
:020000040000fa
:04036400b0020000e3
:020000040000fa
:04036800b0020000df
:020000040000fa
:04036c00b0020000db
:020000040000fa
:04037000b0020000d7
:020000040000fa
:04037400b0020000d3
:020000040000fa
:04037800b0020000cf
:020000040000fa
:04037c00b0020000cb
:020000040000fa
:04038000b0020000c7
:020000040000fa
:04038400b0020000c3
:020000040000fa
:04038800b0020000bf
:020000040000fa
:04038c00b0020000bb
:020000040000fa
:04039000b0020000b7
:020000040000fa
:04039400b0020000b3
:020000040000fa
:04039800b0020000af
:020000040000fa
:04039c00b0020000ab
:020000040000fa
:100400006fd621000e7f24000e018800000000003e
:10041000000020000000e000020032000001200087
:10042000200288000c000700205e2200010020004e
:1004300011000700000020000000e0000200320070
:10044000000002000000000074270200000000000d
:100450000040da000000fe004440a900c00920006e
:100460000000e0000300320000002000a00188002e
:100470004440a80000000600910188008000780038
:100480000000eb0015003700e280400032a0b4000d
:100490009101ba00e280400032a0b4009102ba009b
:1004a000e280400032a0b4000002eb00472bde00e7
:1004b000f507b200602ce10004003a000059eb009f
:1004c0008301e900fdff3e00040037006128e100e0
:1004d000010032000082eb000b00070011c3ba00dc
:1004e0001101ba000604e00003003a000200e00037
:1004f000e5ff3a0000000600f607b200960188000a
:1005000082007800f5ff37003159ba008301e90015
:100510000c0032002159ba008301e90008003200c2
:100520000400e00003003a00e280400032a0b40082
:10053000f5ff370011d9ba008301e900faff3a004c
:100540008100e800e180400032a0b4000000060015
:100550008a12040000000000b02704000000000020
:100560000040da000000fe000a00fa00e20f50002e
:1005700020003e0020eb8000e10f5000060032001a
:100580008023200045232000232320000423200073
:100590000000e00004003a008022200045222000f4
:1005a00023222000042220000600280014036300f8
:1005b00003003a000608780000002800140a7000c2
:1005c00013a8a30001003a0013a0a00002007800c5
:1005d000050037001388a300feff32003102fb0044
:1005e000840a78000000e9000000e000f9ff3a000a
:1005f0000800370033002000b3bf9f00c0bf9f003a
:10060000d1bf9f00e2bf9f006a80570064030700cc
:100610006fb99700020078000080fa000000060021
:100620008001780002003700b15978000201e9002a
:100630000200e000fcff3a000000060080017800a4
:1006400002003700815978000201e9000200e00051
:10065000fcff3a0000000600889fbe000004be00b8
:10066000050037000000fb00890078001900070032
:10067000e10f400004003200384078000004e00040
:10068000f8ff3a000000eb004f04be000000060037
:10069000881f7800a1d22100efff07000004780036
:1006a000a1d22100a00020000a0007000800780065
:1006b0004f047800000006000000fa00688157002f
:1006c000cfb89700a0d221004e0007000080fa00aa
:1006d00000000600889fbe0001047800b80090006a
:1006e0008084eb000118a3003a003200180190004a
:1006f0000198a30002003a000200e00035003a0031
:100700000190a0003104980080047800f90fb20035
:100710000200e00002003a0028009000000c78007f
:10072000ea8f540005003a000178a30003003a0064
:1007300088007800d0002000e6ff07001800900035
:10074000d8009000810f50000b0032000000e8003c
:10075000100498001800780009487800000ce800a0
:1007600011c0b300c0d5210001487800ea8f5400c1
:1007700018003a000500370088007800094078002a
:10078000c80207008004780012003700380090008b
:100790000088a3000f00320018019000a80090000c
:1007a0004800900070ff070098009000810f5000f3
:1007b00004003200380090000003b30030049800b9
:1007c0008084eb000000eb001004980028009000eb
:1007d000000c7800090078004f04be0000000600fd
:1007e000d0019000028151004240a9000300340072
:1007f00010017800014978000208e8000100780043
:10080000000006002f02b000889fbe008a9fbe0035
:100810008c9fbe008e1f780000067800f1af9f000d
:1008200092b79f008006eb0092023700ffa8970066
:100830008100e800f1af9f0051c2b300814f50002a
:1008400003003a007fa897008040eb0011003700ba
:10085000bc0090000000fb000168a300070032000c
:100860000d017800800078000c007800dcff0700a4
:100870000000e00005003a007e0237008c0078009e
:1008800094ff0700e10f40007a0232008d06e80075
:100890007802370000017800b0417800d4c2b3007c
:1008a00084cf51000c00320007003c006d42520022
:1008b00084cf51000a0032006b42420084cf5100c5
:1008c0000d003a000800370004c3b30084cf510084
:1008d00009003a00060037000134a000edff3700a0
:1008e0000104a000ebff37000114a000e9ff37006e
:1008f0000124a000e7ff37000118a3000100320027
:100900000104a1000138a300010032000124a1006c
:100910000300fb000003b100e90f50000e003e0091
:10092000820178000000eb00814278006a00b90083
:100930003301fb000203b100000041000301780015
:100940001302fb000403b100e90f5200f7ff360069
:1009500085407800080037000000eb00a4c2b30017
:1009600084cf510004003a009fb197004300780003
:1009700093b79f000201e8000007eb00e3c2b30059
:1009800092cf110009003a00e4c15100d2cf11000a
:100990000200320082017800080037001fb2970081
:1009a0004407780094b79f000201e80082017800b4
:1009b000080037006a73b900060742000301780097
:1009c0003302fb000403b100e90f5200f9ff3600c7
:1009d000f6ff370003027800344178008401780084
:1009e00035c7b300854f51001c0032000a003c009f
:1009f000f0c25200854f51008d003200e9c2420022
:100a0000854f51000c003200f4af9f000204e0005b
:100a10001d023200a5003700f4af9f0053c7b3009a
:100a2000834f5100a8003200e3c14100834f5100c1
:100a30009e003a000600370002c1b3000148a3003f
:100a4000010032000041eb0082c07000e1ff37007e
:100a5000a2d79f000174a0009e003700f4af9f0052
:100a6000a2d79f009fb297004501780095b79f00dd
:100a7000b2b79f000200e00002003a0007bf210069
:100a8000b7b79f00bfb197000001eb00010037002e
:100a90000201e800634279000404e000fcff3a0030
:100aa000c2b79f000e00e000050032004fb497006f
:100ab000880f5700020031008e047800c9b79f00ec
:100ac0004fb197000004eb00820f50000100360088
:100ad00002045000688760002d003a0011003700c2
:100ae0003c0090000068a300070032000d01780070
:100af000010220000c00780039ff07000000e00030
:100b000006003a00060037008c0078000002200042
:100b1000f0fe0700e10f4000010032008d06e80002
:100b20000804e9000800e000edff3a000084eb0053
:100b30000e057800aab79f00170037003c00900010
:100b40000068a3000900320008007800b000fb0034
:100b5000000478000d0178000c00780020ff0700e9
:100b60000000e00008003a0010003700880078001c
:100b70003100fb00010478008c007800d5fe0700ee
:100b8000e10f4000090032008d06e8000700370041
:100b90008e057800abb79f00080778003fb4970038
:100ba000cfb497005fb59700efb5970009007800c4
:100bb0008004e9000000e000e0ff3a00b8b79f00c1
:100bc000c9b79f00dab79f00ebb79f000e0478000b
:100bd0002fb797000e00e000a60132001100370089
:100be0003c0090000068a300070032000d0178006f
:100bf000010220000c007800f9fe07000000e00070
:100c000006003a00060037008c0078000002200041
:100c1000b0fe0700e10f4000010032008d06e80041
:100c20000804e9000800e000edff3a0091013700f8
:100c3000f4af9f001fb197004204780092b79f0065
:100c4000cfc4de00614db9000802be000a03be0039
:100c50004822de00c829dd0004827100a4d79f006d
:100c60000148a300090032000404e000070032003c
:100c7000e14f420005003200b4d79f00c8d79f0063
:100c800024002000c4b79f0003003700b8d79f009e
:100c900015002000c5b79f0026fd2f000f0343005d
:100ca0000603e800b6b79f007eff3700a2d79f007b
:100cb00027fd2f0087834700b7b79f00180020004b
:100cc000c8b79f0077ff3700a2d79f0002ccb300c0
:100cd00082c070008180fb00a1b79f00f08460009b
:100ce000b9af9f00050032001fb497004802be0054
:100cf0006033b80098b79f00050037009fb4970095
:100d0000c900780099b79f00610ab8006033b80045
:100d1000b4b79f00c5b79f00d6b79f00e7b79f0045
:100d20000e00e0000b003a001e0020003fb49700c8
:100d3000cfb497005fb59700efb59700e00f540070
:100d4000e08f5c00e00f5d00e08f5d00010032008d
:100d50000007eb00afb49700090cb200e9af9f00a9
:100d600001082000818f540014003200010c200083
:100d7000818f540029003a0002c1210011c0b30044
:100d80003202be003203be003fb49700cfb49700da
:100d90005fb59700efb597000440e10005c8e1009a
:100da00006d0e10007d8e1001b0039008140e800cf
:100db000f4cf5000f2ff3a001700370011c0b30023
:100dc00004012000050020006033b8003fb4970004
:100dd000cfb497005fb59700efb597000440e100ee
:100de00005c8e10006d0e10007d8e1000a0039009b
:100df000490020000402d0008582d2000683d20080
:100e00008783d2008904e900faff3a008140e800b4
:100e1000f0cf5000edff3a00a1d79f002fd59700eb
:100e20008a00fb008e8f500002003d00aed79f006d
:100e300003003700810f570001003d0001077800d3
:100e40000000e000040032002fb19700e3006100d1
:100e5000010032000000e900afd197008300fb00e1
:100e60000002eb0084b79f00810f500002003400a5
:100e70008100500081b79f00afb297000528a30002
:100e80003c003200618162000518a3000f003200af
:100e90003c0090000068a30006003200b102200070
:100ea0000200e000010032008180e8000d017800be
:100eb0000d003700b00220000200e0000100320007
:100ec0000080e8008c0078000e0037000200e0008f
:100ed000100032003c0090000068a30007003200c0
:100ee0000d017800010220000c0078003cfe070094
:100ef0000000e00006003a00060037008c00780091
:100f000000022000f3fd0700e10f40000100320065
:100f10008d06e8000fb397000600e0005400320091
:100f2000060478003c0090000068a300070032002f
:100f30000d017800010320000c00780028fe070056
:100f40000000e00006003a00060037008c00780040
:100f500000032000dffd0700e10f40000100320028
:100f60008d06e8000804e900eeff3a0088b79f000c
:100f70003f0037008fb397000700e00017003200f2
:100f80002fb497000838a30014003a000704780033
:100f90003c0090000068a300070032000d017800bb
:100fa000010220000c0078000dfe07000000e000a8
:100fb00006003a00060037008c007800000220008e
:100fc000c4fd0700e10f4000010032008d06e8007b
:100fd0000804e900eeff3a0088b79f00afb497001d
:100fe000618164000918a3000f0032003c009000ea
:100ff0000068a30006003200b10220000200e000f9
:10100000010032008180e8000d0178000d003700fa
:10101000b00220000200e000010032000080e80081
:101020008c0078000e0037000200e0001000320053
:101030003c0090000068a300070032000d0178001a
:10104000010220000c007800e5fd07000000e00030
:1010500006003a00060037008c00780000022000ed
:101060009cfd0700e10f4000010032008d06e80002
:101070000e02e9004225dd00daaf9f004322dd00c9
:1010800080c02100000242008e057800cbaf9f0097
:101090000d0778008c0678000406780057003700aa
:1010a0004fa897000000e900c0af9f000008200093
:1010b000efa89700808f50002b003200000c20001a
:1010c000808f500038003a003fa997000200e000ee
:1010d000190032003fb29700cfb297003c04be0027
:1010e0002c05be000801be000400be00f4b79f003e
:1010f00085bf9f00ac000700a0d79f000000fb0049
:10110000cf80de000801be00b70007007fb2970065
:101110008fba97000002520081825a000404be0078
:101120006055b800b8b79f00c9b79f00dab79f00f5
:10113000ebb79f00080037001c017800bfb4970090
:10114000110009008284d800a200200011000900cb
:101150000280d800a1d79f002fd597000a43b00086
:10116000aad79f00100037003fb09700cfb097007c
:101170005fb19700efb19700dfad97008b05e900f5
:10118000050033008301d1000281d3008180d300a8
:101190000080d300f9ff37006f00600071bf2100ad
:1011a00061407800a0d79f00bd0090002fd197002c
:1011b0000200fb000168a300070032000e01780066
:1011c000800078000d00780085fd07000000e00039
:1011d00005003a00050037008d0078003dfd07004e
:1011e000e10f4000010032000e07e800dfa9970080
:1011f000e4815100d3af9f00680656004faa9700c4
:101200000400e000a6ff3a000d0678008e06780084
:10121000afb297000538a300160032000fb3970055
:101220000600e00013003400060478003c00900043
:101230000068a300070032000d01780001022000c1
:101240000c00780066fd07000000e00006003a0090
:10125000060037008c007800000220001dfd07000a
:10126000e10f4000010032008d06e8000804e900ab
:10127000eeff3a00ffab970017407800a0d79f0021
:101280000004e00069fd3a000d0078004f07780087
:101290004f06be004f05be004f04be002f02b10036
:1012a000000006000200fa00889fbe00a0ff9f0019
:1012b00001047800380090000068a30033003a0071
:1012c000e200600005003a000003b300300498001b
:1012d000110498000080eb002e003700d804900025
:1012e0000900e00006003a0012002000e6805700e6
:1012f000480090009cfc0700190498002300370068
:10130000a80090000100e00008003a00f1d521009b
:1013100021049800010c780021002000510498005d
:10132000110498000030a0003004980018019000cb
:10133000a8009000480090008bfc07002800900057
:101340008080eb0011049800aff897000148780006
:10135000000ce8002ff89700ea4f50000b003a000d
:10136000380090000088a3000800320018019000a7
:10137000a8009000480090007bfc07000000eb00f4
:1013800010049800a8009000010c7800aff89700b6
:101390000100fb004f04be000080fa0000000600c0
:1013a00000c0da00000006006022b800060220003b
:1013b0000000d0008180d2000482d2008582d20059
:1013c0000000a0000202520083825a000300310094
:1013d0000202420083824a000000a1000603e900e5
:1013e000f3ff3a0000000600020ab900001bb90032
:1013f0000200b800810042008100430000000600a6
:020000040000fa
:1014000074610000736b0000546500007374000089
:10141000003e00003e530000746100007274000042
:10142000696e0000672000004672000065650000dc
:10143000525400004f530000207300006368000006
:1014400065640000756c000065720000205b0000a0
:101450002d3e00005d0d0000003e00003e0a000031
:101460004672000065650000525400004f530000b2
:10147000205b000046410000494c00005d00000078
:101480003e3e000020530000746100006b2000000d
:101490006f76000065720000666c00006f770000d8
:1014a000212000002d20000054610000736b00001b
:1014b0004e6100006d6500003a20000025730000b9
:1014c0000a00000011110000222200003333000046
:1014d0004444000055550000666600007777000020
:1014e0008888000099990000aaaa0000bbbb0000f0
:1014f000cccc0000dddd0000eeee0000cecd000023
:10150000acab00005b54000065730000745d00002c
:1015100020720000756e00006e6900006e670000aa
:101520002e2e00002e2000000d0000004944000077
:081530004c4500000000000022
:020000040000fa
:101538001000fa00a0bf9f00b1bf9f00c2bf9f006c
:10154800d3bf9f00e4bf9f00f5bf9f00a00220000b
:10155800ae2602000000000080bf9f000fb8970071
:101568000000e000100032004fb897000000400073
:10157800ae26020000000000800078000fb8970037
:10158800410898000fb89700400890000000e0005c
:1015980005003a000fb897000e270200000000006f
:1015a8000000eb0080bf9f000fb897000000e0002c
:1015b800120032004fb897008000eb000001eb00ea
:1015c800821f7800ffb397006fbb9700dfba9700c0
:1015d8004fba97000001be00afb897001fb8970038
:1015e8000b0007008f87e9000fb897007400070009
:1015f8001000200090bf9f00020037000080eb0021
:1016080090bf9f001fb897000080fa0000000600f6
:101618001400fa0080bf9f0091bf9f00a2bf9f00e7
:10162800b3bf9f00c4bf9f00d5bf9f00e6bf9f0008
:10163800f7bf9f002fb89700000040008000780097
:101648007fb897004008900001017800510a2000f7
:101658001e030200000000007fb89700c008900039
:10166800f1b79f007fb89700c00890002fb9970086
:10167800f0ff27000000410000004000808040008b
:101688007fb89700111098000000eb00e0b79f00aa
:10169800120037001fb897006fb197000200400092
:1016a800904078007fb897006fb197000200400023
:1016b8007a004000014878001fb89700efb0970003
:1016c80001004000104078000004e00007003200ec
:1016d8006fb197000201e800e2b79f006fb0970072
:1016e800e70f5000ebff3600010037000000000054
:1016f8007fb897008040eb00116098005fb89700b2
:10170800e40f50000200360040002000d0bf9f00c8
:101718007fb89700dfb89700310898007fb8970026
:101728000080e800ec240200000000007fb8970069
:101738006c004000ec240200000000007fb8970015
:101748007fb99700420098005fb89700e500100045
:101758007fb89700610098007fb89700ffb897009e
:10176800110898007fb997006000b8002011980010
:10177800311198007fb897008040eb00016898000d
:101788004fb997008fb897007fb097006a2302007f
:1017980000000000800078007fb8970001087800fa
:1017a8006fb897000000e000030032006fb89700a0
:1017b8007fb99700020878000080fa000000060050
:1017c8000200fa00f0bf9f005c2402000000000045
:1017d80040e880000000e80040e8880040e580001c
:1017e8000000e00007003a00ffb8970041e58800d4
:1017f80040e88000e10f50000d003a004f03070059
:101808000b00370070e880000000e00008003a0094
:1018180040e58000b00890007fb89700300890003d
:10182800808f500002003e00ffb8970041e5880015
:10183800b0e880000000e800b0e888007fb89700b2
:10184800b008900060e88000808f500003003600e8
:101858007fb897003008900060e88800ffb89700cc
:101868000181e8007fb89700300890006a00b9004d
:1018780080007800a0ca2100008040008200780023
:10188800fa24020000000000722402000000000098
:1018980070e880000000e0000900320040e58000a8
:1018a800b00890007fb8970030089000808f5000f3
:1018b800030031002427020000000000000000009f
:1018c8000080fa00000006000c00fa00e0bf9f004c
:1018d800f1bf9f000000eb00a0bf9f0000010700c0
:1018e80051e88000b1bf9f006fb897009000780062
:1018f8007fb8970000804000c0bf9f006fb8970076
:10190800900078003fb89700808f50000c00360098
:101918006fb89700900078004fb89700808f5000fc
:1019280012003600cfb897003fb89700808f50005c
:101938000e00360010002000a0bf9f000b003700eb
:101948006fb89700900078004fb89700808f5000cc
:1019580004003e00cfb897003fb89700808f500032
:101968000200360010002000a0bf9f006fb897004b
:10197800cfb89700010878002fb897000000e00062
:1019880005003200cfb897003fb89700008050009c
:101998008000eb005d050700d5000700d0bf9f0061
:1019a8005fb897000000e00003003a002427020017
:1019b80000000000000000000080fa00000006009f
:1019c8000400fa00f0bf9f000000eb00e0bf9f009a
:1019d8007fb897000000e00006003200c000070052
:1019e8008000eb007fb8970048050700c00007009b
:1019f800e0bf9f006fb897000000e00003003a00c6
:101a08002427020000000000000000000080fa0007
:101a1800000006000400fa00f0bf9f005c240200ea
:101a2800000000007fb897000000e00002003a00c4
:101a380040e58000010037007fb89700e0bf9f00b5
:101a4800efb897000180e8009a2502000000000026
:101a58006fb89700200890000000e00004003200f2
:101a6800efb897006c8040009a2502000000000043
:101a7800efb897000180e80080007800e0cf2100ef
:101a8800fa24020000000000722402000000000096
:101a980070e880000000e000050032005c240200cd
:101aa80000000000f8020700722402000000000095
:101ab80040e58000efb89700808f50000f003a0093
:101ac80070e880000000e0000400320024270200d3
:101ad800000000000000000008003700f1e7800067
:101ae80040e88000808f500003003a000000eb00bf
:101af80040e58800010037006d0107000080fa000a
:101b0800000006000600fa00f0bf9f000000eb008e
:101b1800d0bf9f00ffb89700e1bf9f006fb8970044
:101b2800d0009000e0cf2100808f50000b003a00d9
:101b38006fb89700a008900040cf2100808f500018
:101b4800060032006fb89700200890000000e000ff
:101b580002003a0010002000d0bf9f005fb8970035
:101b68000080fa00000006000400fa00f0bf9f00a1
:101b7800ffb89700e1bf9f006fb897000000e00032
:101b88002c00320040e58000efb89700808f5000ad
:101b9800280032005c240200000000006fb89700a3
:101ba800d8ff07000000e00020003200efb89700df
:101bb8000180e8009a250200000000006fb8970035
:101bc800b008900060e88000808f50000300360065
:101bd8006fb897003008900060e88800efb8970069
:101be8000181e8006fb89700300890006a00b900da
:101bf80080007800a0ca21000080400082007800a0
:101c0800fa240200000000006fb89700b0089000a6
:101c180040e5800030089000808f500003003900b4
:101c280024270200000000000000000072240200c7
:101c3800000000000080fa00000006000200fa0020
:101c4800a5d121000002eb008001eb003207200043
:101c580061a92800a028210035fe0700f0bf9f00d9
:101c68007fb89700e10f50000f003a001002800083
:101c78000050a0000060a1000070a10010028800c0
:101c880000000000000000000080eb00c0e88800b1
:101c98001000200070e888000000eb0050e8880081
:101ca80004240200000000000080fa000000060082
:101cb800100280000050a0000060a1000070a10088
:101cc8001002880000000000000000000000eb0087
:101cd80070e88800302402000000000000000600c0
:101ce800e0e880000000e800e0e888000000060066
:101cf8000600fa000000eb00d0bf9f000000eb00d8
:101d0800e0bf9f005c24020000000000e0e88000c3
:101d18000000e900e0e88800e0e880000000e0005a
:101d28004b003a0040e880000000e0004800320024
:101d380026003700d0e7800030009000d0bf9f0019
:101d4800dfb897006c8040009a2502000000000070
:101d5800dfb897000180e8009a2502000000000023
:101d68005fb89700b008900060e88000808f50004e
:101d7800030036005fb897003008900060e88800dc
:101d8800dfb897000181e8005fb89700300890003d
:101d98006a00b90080007800a0ca210000804000d5
:101da80082007800fa240200000000005fb8970063
:101db800b008900040e5800030089000808f500007
:101dc800020039001000200090e88800a0e7800099
:101dd8000000e000d7ff3a005fb897000000e0007d
:101de800010032002802070081e88000f1bf9f004f
:101df8007fb897000000e0000d0032003a000700ad
:101e08000000e000020032001000200090e8880086
:101e18007fb897000000e900f0bf9f007fb89700e7
:101e28000000e000f5ff3a000000eb0080e88800c1
:101e380090e880000000e00005003200100020005b
:101e4800e0bf9f00242702000000000000000000ff
:101e580072240200000000006fb897000080fa00aa
:101e6800000006000200fa005c24020000000000e6
:101e780051e88000f1bf9f007224020000000000ba
:101e88007fb897000080fa00000006000400fa00fe
:101e98000000eb00e0bf9f0051e88000f1bf9f0009
:101ea8007fb897000080fa000000060040e8800034
:101eb800000006000400fa00f0bf9f007fb89700fa
:101ec8000000e00002003a0040e580000100370011
:101ed8007fb89700e0bf9f00efb897007a80400076
:101ee8000080fa00000006000a00fa000000eb007b
:101ef800b0bf9f00e0e880000000e00061003a0009
:101f080050e880000000e800c0bf9f00cfb89700ed
:101f180051e888004fb897000000e0000a003a0036
:101f280081e78000d1bf9f0090e7800080e78800ac
:101f3800dfb8970091e78800a0e880000000e8007b
:101f4800a0e88800d0010700c0e88000cfb897005b
:101f5800808f50003f00390001003700000000006a
:101f680080e78000100078000000e00003003a00dd
:101f78000080eb00c0e888003600370080e780006a
:101f88003000900030009000e0bf9f006fb89700cd
:101f980090009000f1bf9f00cfb897007fb89700de
:101fa800808f500003003100ffb89700c1e8880017
:101fb800280037006fb897000080e8009a250200d3
:101fc800000000006fb89700200890000000e000b3
:101fd800040032006fb897006c0040009a25020098
:101fe800000000006fb89700b008900060e880001b
:101ff800808f5000030036006fb8970030089000bb
:1020080060e888006fb897000081e8006fb8970013
:10201800300890006a00b90080007800a0ca21004a
:102028000080400082007800fa24020000000000ce
:102038006fb89700b008900040e580003008900025
:10204800808f5000c5ff390010002000b0bf9f00ee
:10205800c3ff370040e58000300890006a00b900ef
:1020680080007800a0ca210000804000100078009d
:10207800e10f50000600360010002000b0bf9f009e
:102088000300370080e880000000e80080e888004e
:1020980090e880000000e0000200320010002000fc
:1020a800b0bf9f003fb897000080fa00000006000c
:1020b8000400fa00e0e880000000e00003003200bd
:1020c8001000200090e88800370037000000eb007f
:1020d80090e8880040e580009000780040e58000a6
:1020e80010109000808f50000500390040e58000f6
:1020f800fa00400040e580009a2702000000000036
:1021080061e88000e1bf9f0003003700efb8970047
:102118008100e900e1bf9f006fb897006a00b9002d
:1021280080007800a0ca21000080400010007800dc
:102138000000e000f5ff32006fb897006a00b900b0
:1021480080007800a0ca210000804000f0bf9f00f6
:102158007fb8970010009000900090007fb897001b
:10216800110098007fb89700900090007fb8970002
:1021780064004000808f500005003a007fb8970047
:1021880010009000900090007fb897001100980010
:102198007fb89700100090003000900040e588005c
:1021a800efb8970061e888000080fa000000060098
:1021b8000400fa00e0bf9f00f1bf9f0040e58000e7
:1021c8006c004000800078006fb897003625020048
:1021d80000000000110020007fb897004b030700a3
:1021e8000080fa00000006000600fa00d0bf9f0039
:1021f800e1bf9f00f2bf9f0040e580006fb99700e4
:1022080001002800828070006100980040e580008d
:102218006c004000800078005fb89700fa24020044
:1022280000000000110020007fb897003703070066
:102238000080fa00000006000600fa00f0bf9f00c8
:102248007fb897003000900030009000e0bf9f00fa
:102258006fb897006c0040009a250200000000004b
:10226800e0e880000000e00018003a006fb897002e
:102278000080e8009a250200000000006fb897006f
:10228800b008900060e88000808f5000030036009e
:102298006fb897003008900060e888006fb8970022
:1022a8000081e8006fb89700300890006a00b90014
:1022b80080007800a0ca21000080400082007800d9
:1022c800fa24020000000000060037006fb89700eb
:1022d8006c0040008000780040cf2100fa24020002
:1022e800000000006fb89700b008900040e580003b
:1022f80030089000808f5000050036001000200044
:10230800d0bf9f001000200090e88800020037002e
:102318000000eb00d0bf9f005fb897000080fa0074
:10232800000006000800fa00e0bf9f00f1bf9f0010
:10233800ffb8970000002800810070006fb8970070
:10234800010878006fb8970030009000d0bf9f0058
:102358006fb897009a250200000000005fb8970048
:102368000080e8009a250200000000005fb897008e
:10237800b008900060e88000808f500003003600ad
:102388005fb897003008900060e888005fb8970051
:102398000081e8005fb89700300890006a00b90033
:1023a80080007800a0ca21000080400082007800e8
:1023b800fa240200000000005fb89700b0089000ff
:1023c80040e5800030089000808f500005003600fe
:1023d80010002000c0bf9f001000200090e8880077
:1023e800020037000000eb00c0bf9f004fb8970005
:1023f8000080fa00000006000200fa00f0bf9f000b
:10240800a1e880007fb897000108780051e88000b3
:102418007fb89700110098000080fa0000000600bd
:102428000800fa00e0bf9f00f1bf9f005c24020093
:102438000000000051e88000d1bf9f007fb89700de
:1024480010007800e10f400003003a000000eb00a4
:10245800c0bf9f00250037006fb897009000780034
:10246800a0e88000808f5000080032006fb8970005
:10247800900090005fb89700808f500003003e00e6
:1024880010002000c0bf9f00180037006fb89700e9
:1024980010009000dfb89700808050007fb8970048
:1024a80010007800808f50000e0031007fb8970030
:1024b800900078006fb89700100190005fb89700ff
:1024c80000005100808040007fb897000108780024
:1024d8006fb89700c8ff07000000eb00c0bf9f005f
:1024e8000200370010002000c0bf9f0072240200c5
:1024f800000000004fb897000080fa0000000600b6
:102508001000200090e88800000006000200fa0091
:10251800f0bf9f002c00070050e58000e10f50003d
:10252800030036002427020000000000000000001d
:102538009627020000000000f6ff37000200fa00ac
:102548000000eb00f0bf9f000a0037007fb897003b
:102558006a00b90080007800a0ca2100008040000d
:10256800ba24020000000000ffb897008100e800cc
:10257800f1bf9f007fb89700e40f5000f3ff3600cb
:10258800c0cd2100ba2402000000000060ce210066
:10259800ba2402000000000040cf2100ba24020043
:1025a80000000000e0cf2100ba2402000000000073
:1025b800c0cd210080e7880060ce210090e7880028
:1025c8000080fa0000000600000006000600fa007d
:1025d800f0bf9f006000b800d0bf9f00e1bf9f0020
:1025e800090037007fb897000000e900f0bf9f009e
:1025f8005fb99700efb9970061014100e081490098
:10260800d2bf9f00e3bf9f007fb89700904078003b
:1026180050cab30080cf5000f2ff32005fb8970075
:10262800efb897008100d1000080d300d0bf9f0091
:10263800e1bf9f005fb897000080fa000000060025
:102648000800fa00f0bf9f007fb897000000e00084
:1026580002003a0040e58000010037007fb897008b
:10266800c0bf9f004fb8970010109000d0bf9f00c8
:102678005fb89700d5ff0700e0bf9f006fb89700cd
:102688000080fa00000006000200fa0080e78000df
:10269800100078000000e00003003a000080eb0022
:1026a800c0e888000700370080e78000300090000d
:1026b80030009000f0bf9f007fb897001000900096
:1026c800c0e888000080fa00000006000200fa0056
:1026d80040e58000e0009000f1bf9f0040e58000e9
:1026e80041e58000b1089000e58010006100980085
:1026f8007fb897000080fa00000006000800fa0082
:10270800e0bf9f00f1bf9f005c24020000000000b2
:1027180040e58000b010900020109000e00f5000bd
:10272800e08f58000c003a0040e5800011c0b3006b
:10273800016898007fb897000000e00006003200aa
:10274800110020007fb89700f0010700242702003d
:1027580000000000000000007224020000000000d9
:102768005c2402000000000040e580002011900079
:10277800b0119000c2bf9f00d3bf9f004fb8970011
:10278800dfb89700e00f5000e08f58000f003200cc
:102798006fb897000000e0000500320042e58000b5
:1027a8006000b80020119800311198000700370028
:1027b80042e580004fba9700dfba970061005200e7
:1027c800e0805a00201198003111980040e58000ff
:1027d8008040eb00016898007224020000000000ad
:1027e8004fb89700dfb897000080fa000000060095
:1027f8000e00fa00a0bf9f00b1bf9f00c2bf9f009c
:10280800d3bf9f00e4bf9f00f5bf9f005c24020078
:102818000000000040e5800000689000e24f500092
:102828002200320044e5800024119000b411900089
:102838002fb89700bfb897000080ea008180ea00af
:102848008202780003017800800178000100780096
:1028580083826200000061008000eb00c000dd00a0
:10286800000020000001be006128b80000017100ce
:1028780081817100221298003312980040e580008f
:1028880011c0b300016898007fb897000000e0000d
:1028980006003200110020007fb897009b01070056
:1028a800242702000000000000000000722402003b
:1028b800000000005c240200000000006fb89700d0
:1028c8000000e0000500320040e58000b0109000f4
:1028d800201090006fb997000089be0040e5800085
:1028e80000689000e14f500003003a000000eb0040
:1028f80090bf9f001800370044e580002411900025
:10290800b41190004fb89700dfb897000080ea0034
:102918008180ea0082027800030178008001780053
:102928000100780083826200000061008000eb00f3
:10293800c000dd00000020000001be006128b800d2
:1029480000017100818171002212980033129800f1
:102958001000200090bf9f0040e580008040eb0001
:102968000168980072240200000000001fb8970058
:102978000080fa00000006001000fa00b0bf9f00b7
:10298800c2bf9f00d3bf9f00e1bf9f00f4bf9f005d
:102998001000200080bf9f00bfb8970091bf9f0024
:1029a8005c240200000000007fb897000000e000ef
:1029b800050032001fb89700b0109000201090005a
:1029c8007fb997000089be001fb897000069900082
:1029d800c2f79f001fb8970021c0b3000168980094
:1029e8006fb89700e20f500017003200e20f500056
:1029f80005003e000000e0002e003200e10f50000c
:102a0800060032002c003700e30f50001700320098
:102a1800e40f50001b003200270037001fb8970052
:102a280020119000b01190004fb89700dfb89700c0
:102a380000007100818071001fb997002011980073
:102a4800311198001c0037001fb89700b010900093
:102a58002010900061004000e08048001fb99700f6
:102a68002011980031119800130037001fb8970003
:102a78004fb99700dfb997002210980033109800db
:102a88000d0037004ff09700e24f5000060032006b
:102a98001fb897004fb99700dfb997002210980028
:102aa80033109800040037000000eb0080bf9f003f
:102ab80001003700000000004ff09700e14f500080
:102ac80020003a001fb897000080e8009a2502000d
:102ad800000000001fb89700b008900060e8800070
:102ae800808f5000030036001fb897003008900010
:102af80060e888001fb897000081e8001fb89700b9
:102b0800300890006a00b90080007800a0ca21004f
:102b18000080400082007800fa24020000000000d3
:102b28001fb89700b008900040e58000300890007a
:102b3800808f5000030036002427020000000000a8
:102b48000000000072240200000000000fb8970087
:102b58000080fa00000006001400fa00a0bf9f00e1
:102b6800b2bf9f00c3bf9f00d1bf9f00e4bf9f00bb
:102b7800f5bf9f0010002000e0b79f00afb8970096
:102b8800f1b79f000000eb0080bf9f006fb897006f
:102b98000000e000050032007fb09700b010900000
:102ba800201090006fb997000089be007fb0970091
:102bb80000699000a2f79f007fb0970021c0b30082
:102bc800016898005fb89700e20f500017003200c4
:102bd800e20f500005003e000000e0002e00320029
:102be800e10f5000060032002c003700e30f5000c0
:102bf80017003200e40f50001b0032002700370096
:102c08007fb0970020119000b01190003fb8970056
:102c1800cfb8970000007100818071007fb19700e4
:102c280020119800311198001c0037007fb09700e0
:102c3800b01090002010900061004000e080480033
:102c48007fb19700201198003111980013003700c8
:102c58007fb097003fb99700cfb99700221098002e
:102c6800331098000d0037002ff09700e24f500006
:102c7800060032007fb097003fb99700cfb99700a0
:102c88002210980033109800040037000000eb0071
:102c9800e0b79f0001003700000000002ff0970008
:102ca800e14f500030003a00e0e880000000e0000a
:102cb80018003a007fb097000080e8009a250200cb
:102cc800000000007fb09700b008900060e8800026
:102cd800808f5000030036007fb0970030089000c6
:102ce80060e888007fb097000081e8007fb0970017
:102cf800300890006a00b90080007800a0ca21005e
:102d08000080400082007800fa24020000000000e1
:102d1800060037007fb097006c0040008000780004
:102d280040cf2100fa240200000000007fb0970085
:102d3800b008900040e5800030089000808f500077
:102d4800090036007fb897000000e0000400320058
:102d58007fb89700110020000108780002003700b2
:102d68001000200090e888006fb097000080fa00fb
:102d7800000006000a00fa00e0bf9f00f1bf9f00b4
:102d8800efb89700b1bf9f000000eb00c0bf9f00e5
:102d98003fb8970080689000a1ff9f003fb8970058
:102da80021c0b300016898003fb89700b0109000a8
:102db8002010900061004000e08048003fb9970073
:102dc80020119800311198002ff89700e14f50001a
:102dd80030003a00e0e880000000e00018003a0007
:102de800bfb897000180e8009a25020000000000a3
:102df8003fb89700b008900060e88000808f5000ce
:102e0800030036003fb897003008900060e888005b
:102e1800bfb897000181e8003fb8970030089000dc
:102e28006a00b90080007800a0ca21000080400034
:102e380082007800fa240200000000000600370033
:102e4800bfb897006c8040008000780040cf210018
:102e5800fa240200000000003fb89700b008900074
:102e680040e5800030089000808f5000090036004f
:102e78007fb897000000e000040032007fb8970098
:102e8800110020000108780002003700100020001f
:102e980090e888000080fa00000006000600fa00aa
:102ea800f0bf9f007fb897000000e00002003a00e2
:102eb80040e58000010037007fb89700e0bf9f0021
:102ec8005c240200000000006fb8970000689000c2
:102ed800e24f500006003a006fb897008040eb00c0
:102ee8000168980010002000d0bf9f000200370042
:102ef8000000eb00d0bf9f00722402000000000019
:102f08005fb897000080fa00000006000800fa0089
:102f1800e0bf9f00f1bf9f0051e88000c1bf9f0044
:102f280040e580000080e8009a25020000000000cb
:102f38006fb89700e10f40000a003a007fb8970089
:102f48000000e0000700320040e580000080e80053
:102f580080007800e0cf2100fa2402000000000081
:102f68001c0037006fb89700cfb89700008040006a
:102f7800d0bf9f0040e58000dfb89700110098009f
:102f88005fb89700cfb89700810f50000600310056
:102f980040e580008080e80090e780003625020048
:102fa800000000000b00370040e580008080e8004a
:102fb80080e780003625020000000000c0e880009d
:102fc800dfb89700808f500002003100dfb897000b
:102fd800c1e888000080fa00000006000600fa0038
:102fe800e0bf9f00f1bf9f00efb89700d1bf9f00df
:102ff8005c240200000000005fb897001001780010
:103008005fb89700f00890005fb897000010900034
:103018000088b90000007800800041005fb8970080
:10302800110098005fb897008000eb0061089800d5
:103038005fb89700900078005fb89700210098006b
:103048005fb89700100178005fb89700700890008b
:103058008000e9005fb89700001090000088b90070
:1030680000007800800041005fb8970031009800a8
:103078005fb8970080c0eb00216098005fb89700a8
:1030880080c0eb00316098007fb897000000e00036
:103098000e003a005fb89700400090000000e00082
:1030a80012003200dfb8970068804000201102004b
:1030b800000000000000e0000c003200242702009d
:1030c800000000000000000008003700dfb897008b
:1030d80068804000ba24020000000000dfb89700b2
:1030e80072804000ba24020000000000722402002e
:1030f80000000000100020000080fa000000060018
:103108000c00fa00d0bf9f00e1bf9f00e2ff9f00c4
:103118006fb897000000e00003003a000000eb00e1
:10312800a0bf9f0005003700dfb897006fb8970071
:103138000088b90000007800a0bf9f002fb8970052
:103148004002b000ae26020000000000b0bf9f00a1
:103158003fb897000000e000090032003fb8970030
:103168004002b000c0bf9f003fba9700eff9970038
:103178004fb99700efb897005fb8970003000700b2
:103188003fb897000080fa00000006000a00fa0025
:10319800b0bf9f00c1bf9f00d2bf9f00c3ff9f0069
:1031a800f4bf9f004fb897000000e00004003a0009
:1031b800ffb897007fb89700010878000300370030
:1031c800dfb897007fb89700010878007fb89700ac
:1031d800bfb89700710898007fb89700cfb89700dc
:1031e80001109800110020007fb897007bff0700ae
:1031f8000080fa00000006001200fa00c0bf9f001d
:10320800d1bf9f00e2bf9f00f3bf9f000000eb000b
:10321800f0b79f00cfb8970081bf9f00010037002b
:10322800000000005c240200000000000fb89700b6
:10323800e00890000fb8970070089000808f500049
:10324800030039007fb89700e20f50001d003a00d4
:103258007fb99700dfb897000fb89700eb01070018
:1032680090bf9f000fb89700100890000000e00082
:103278000a0032000fb897007200400020110200c7
:10328800000000000000e0000a00320024270200cd
:103298000000000000000000060037001fb897007b
:1032a8000000e000030032002427020000000000b4
:1032b800000000007224020000000000100020003e
:1032c800480037006fb897000000e00004003a009b
:1032d80072240200000000000000eb0041003700eb
:1032e8007fb097000000e00005003a006c805700ae
:1032f800001202000000000010002000f0b79f003c
:103308007224020000000000740e02000000000099
:103318005c240200000000000fb8970020609000b5
:10332800e14f400003003a000fb897008040eb00df
:10333800216098000fb8970030609000e14f40007e
:1033480003003a000fb897008040eb003160980006
:103358007224020000000000e48057006c805700cf
:1033680014120200000000000000e00018003a00fb
:103378000fb89700820207000000e0000f0032003b
:10338800efb897000fb8970068004000dc10020003
:10339800000000000fb89700170207007c0e02001b
:1033a800000000000000e0009dff3a002427020012
:1033b80000000000000000009aff37000fb89700d7
:1033c8000d0207007c0e02000000000095ff370088
:1033d8000fb89700080207007c0e020000000000ea
:1033e8000000eb000080fa00000006001000fa0060
:1033f800c0bf9f00d1bf9f00e2bf9f00f3bf9f00e7
:10340800cfb8970091bf9f000000eb00a0bf9f00be
:103418001fb89700e00890001fb897007008900048
:10342800808f5000030039007fb89700e20f5000ea
:1034380023003a001fb89700b0609000e1f79f00a2
:103448007fb99700dfb897001fb897006f01070092
:103458006ff09700e14f400011003a001fb8970045
:10346800100890000000e000120032001fb897001a
:103478007200400020110200000000000000e0007f
:103488000c0032006fb897000000e000090032001d
:103498006fb8970011002000010878000500370078
:1034a8006ff097000040e800804078001fb8970050
:1034b800316098001000200080bf9f000200370094
:1034c8000000eb0080bf9f000fb897000080fa0053
:1034d800000006000e00fa00e0bf9f00f1bf9f0049
:1034e800efb89700a1bf9f000000eb00b0bf9f009e
:1034f8002fb89700e0089000c1bf9f002fb8970031
:10350800f00890004fb89700808f500023003600d5
:103518002fb89700b0609000a1ff9f004fb89700a8
:103528008000e8002fb89700610898002ff89700ee
:10353800e14f400011003a002fb8970010089000a2
:103548000000e000120032002fb89700720040001f
:1035580020110200000000000000e0000c00320012
:103568007fb897000000e000090032007fb897009c
:103578001100200001087800050037002ff8970097
:103588000040e800804078002fb89700316098002c
:103598001000200090bf9f00020037000000eb00e1
:1035a80090bf9f001fb897000080fa000000060037
:1035b8001400fa00c0bf9f00d1bf9f00e2bf9f0068
:1035c800f3bf9f000000eb00e0b79f00cfb8970063
:1035d800f1b79f000300370000000000010037002a
:1035e800000000005c240200000000007fb097008b
:1035f800e008900081bf9f000fb897000000e0002e
:103608002f0032007fb09700b000900091bf9f005c
:10361800dfb897007fb09700540107007fb8970084
:103628000000e00012003a000fb897008000e9009f
:103638007fb09700610898007fb097004000900025
:103648000000e0001a0032007fb0970068004000d8
:1036580020110200000000000000e0001400320009
:1036680024270200000000000000000010003700be
:103678007fb097009fb89700310098007fb09700ff
:10368800100890000000e000090032007fb09700a9
:103698007200400020110200000000000000e0005d
:1036a8000300320024270200000000000000000090
:1036b8007224020000000000100020004c003700b7
:1036c8006fb897000000e00004003a00722402007e
:1036d800000000000000eb00450037006fb09700c5
:1036e8000000e00005003a006c805700001202005c
:1036f8000000000010002000e0b79f0072240200c4
:1037080000000000740e0200000000005c240200ab
:10371800000000007fb0970020609000e14f40005b
:1037280003003a007fb097008040eb0021609800ca
:103738007fb0970030609000e14f400003003a00ee
:103748007fb097008040eb0031609800722402003f
:1037580000000000e48057006c805700141202003b
:10376800000000000000e00018003a007fb0970059
:10377800630107000000e0000f003200efb8970077
:103788007fb0970072004000dc10020000000000cb
:103798007fb09700180107007c0e020000000000af
:1037a8000000e0008cff3a0024270200000000001f
:1037b800000000008bff37007fb097000e01070064
:1037c8007c0e02000000000086ff37007fb09700e3
:1037d800090107007c0e0200000000007fb097007e
:1037e800470107000000e0007dff32000000eb0009
:1037f8000080fa00000006001000fa00d0bf9f0009
:10380800e1bf9f00f2bf9f00dfb8970091bf9f0004
:103818000000eb00a0bf9f001fb89700e0089000d1
:10382800b1bf9f003fb897000000e00026003200bb
:103838001fb89700a060900081ff9f00efb8970025
:103848001fb89700c90007003fb897008000e9003b
:103858001fb89700610898000ff89700e14f4000e3
:1038680011003a001fb89700400090000000e000e7
:10387800120032001fb897006800400020110200b3
:10388800000000000000e0000c0032007fb8970044
:103898000000e000090032007fb897001100200006
:1038a80001087800050037000ff897000040e8008d
:1038b800804078001fb89700216098001000200011
:1038c80080bf9f00020037000000eb0080bf9f0010
:1038d8000fb897000080fa00000006000c00fa00fc
:1038e800e0bf9f00f1bf9f00efb89700b1bf9f00f6
:1038f8000000eb00c0bf9f003fb897006008900031
:103908000000e0000c0032003fb89700b0009000c3
:10391800d1bf9f00ffb897003fb8970093000700fa
:103928003fb89700dfb897003100980010002000da
:10393800a0bf9f00020037000000eb00a0bf9f005f
:103948002fb897000080fa00000006000400fa0073
:10395800f0bf9f005c240200000000007fb89700c1
:10396800e0089000e1bf9f00722402000000000000
:103978006fb897000080fa00000006000600fa0001
:10398800f0bf9f00ffb89700d1bf9f005c240200e2
:10399800000000005fb89700f00890005fb897003b
:1039a8006008900000805000e0bf9f007224020071
:1039b800000000006fb897000080fa0000000600c1
:1039c8000400fa00f0bf9f007fb89700e00890005d
:1039d800e1bf9f006fb897000080fa000000060062
:1039e8000400fa00f0bf9f00ffb89700e1bf9f00f6
:1039f8006fb89700480107006fb897000e270200bc
:103a0800000000000080fa00000006000a00fa002a
:103a1800d0bf9f00e1bf9f00f2bf9f000000eb00f6
:103a2800c0bf9f005fb89700e0089000b1bf9f003b
:103a38005fb89700001090000000e00044003200da
:103a48007fb897000000e0001a003a005fb89700be
:103a5800801090005fb89700200090000101780066
:103a6800efb8970010030200000000005fb897004d
:103a7800a00090005fb89700001090008080400080
:103a88005fb89700210098005fb89700a0009000e9
:103a98005fb8970010009000808f50002c0039000c
:103aa8005fb89700900078005fb8970021009800f1
:103ab800270037005fb89700801090005fb8970024
:103ac8003000900001017800efb897001003020061
:103ad800000000005fb89700b00090005fb8970042
:103ae800001090000000ea00808040005fb8970056
:103af800310098005fb89700b00090005fb8970059
:103b080010007800808f5000080031005fb89700df
:103b1800900090005fb89700001090000000ea0045
:103b2800808040005fb89700310098007fb8970008
:103b3800e20f500006003a003fb897000000e0008e
:103b4800030032003fb997000201e900b2bf9f00ad
:103b58003fb997008200e8005fb8970061089800b5
:103b68004fb897000080fa00000006000400fa0031
:103b7800e0bf9f00f1bf9f006fb897000010900052
:103b88000000e0001a0032006fb89700b000900003
:103b98006fb8970000109000808040006fb89700c1
:103ba800310098006fb89700b00090006fb8970088
:103bb80010009000808f5000040039006fb8970003
:103bc800900078006fb89700310098006fb89700a0
:103bd800801090006fb897003000900001017800c5
:103be800800078007fb897001003020000000000f2
:103bf8000080fa00000006000400fa00f0bf9f00f1
:103c08005c240200000000007fb89700b0609000bc
:103c1800c1ff9f000f0037007fb897001008900081
:103c28000000e0000f0032007fb8970072004000eb
:103c380020110200000000000000e0000200320035
:103c48008412020000000000cff897008140e900cc
:103c5800c1ff9f004ff897000004e000eeff3c0012
:103c680001003700000000007fb8970080c0eb001b
:103c78003160980072240200000000005c240200f9
:103c8800000000007fb89700a0609000d1ff9f005f
:103c98000f0037007fb89700400090000000e00058
:103ca8000f0032007fb89700680040002011020022
:103cb800000000000000e000020032008412020050
:103cc800000000005ff897000040e900d0ff9f0067
:103cd8005ff897000004e000eeff3c0001003700a9
:103ce800000000007fb8970080c0eb0021609800ba
:103cf80072240200000000000080fa0000000600a4
:103d08000400fa00f0bf9f005c24020000000000dd
:103d18007fb89700600890000000e00003003a00b8
:103d280010002000e0bf9f00020037000000eb00f9
:103d3800e0bf9f0072240200000000006fb89700e7
:103d48000080fa00000006000400fa00f0bf9f009f
:103d58007fb89700600890000000e00003003a0078
:103d680010002000e0bf9f00020037000000eb00b9
:103d7800e0bf9f006fb897000080fa0000000600bf
:103d88000400fa00f0bf9f005c240200000000005d
:103d98007fb89700e00890007fb8970070089000ff
:103da800808f500003003a0010002000e0bf9f0001
:103db800020037000000eb00e0bf9f007224020001
:103dc800000000006fb897000080fa0000000600ad
:103dd8000400fa00f0bf9f007fb89700e008900049
:103de8007fb8970070089000808f500003003a0059
:103df80010002000e0bf9f00020037000000eb0029
:103e0800e0bf9f006fb897000080fa00000006002e
:103e18000600fa00e0bf9f00f1bf9f000000eb0022
:103e2800d0bf9f00170037005fb89700c200dd00c1
:103e380040d4210000804000100078000000e0001d
:103e48000d003a005fb89700c200dd0040d42100a1
:103e580000804000ffb89700010878005fb897001d
:103e6800c200dd0060d4210000804000efb8970058
:103e78000108780006003700dfb897008100e800e5
:103e8800d1bf9f005fb89700e50f5000e6ff3600ee
:103e98000080fa00000006000600fa00f0bf9f004c
:103ea8000000eb00e0bf9f000000eb00d0bf9f00c8
:103eb800130037005fb897004200dd008080e800fb
:103ec80040d4210000804000900078007fb897001f
:103ed800808f500007003a005fb89700c200dd00ed
:103ee80040d421000080400090007800e1bf9f008e
:103ef80006003700dfb897008100e800d1bf9f00b7
:103f08005fb89700e50f5000eaff36006fb89700da
:103f18000080fa00000006000400fa00f0bf9f00cd
:103f28000000eb00e0bf9f00190037006fb8970052
:103f38004200dd008080e80040d42100008040007d
:103f4800900078007fb89700808f50000d003a00ed
:103f58006fb89700c200dd0040d421000080400007
:103f68008000eb00010878006fb89700c200dd0000
:103f780060d42100008040008000eb000108780038
:103f880006003700efb897008100e800e1bf9f0006
:103f98006fb89700e50f5000e4ff36000080fa0084
:103fa800000006000200fa00c0002000ae26020051
:103fb80000000000f0bf9f007fb897000000e000fd
:103fc800070032007fb897008000eb0001087800f6
:103fd800ffb897000180e800ba2402000000000042
:103fe8007fb897000080fa00000006001200fa006f
:103ff800c0bf9f00d1bf9f00e2bf9f00f3bf9f00db
:10400800cfb8970081bf9f000000eb0090bf9f00d2
:10401800740e0200000000000fb89700100178002d
:10402800a2bf9f00dfb897004fb89700f4000700c1
:10403800afb897005fb89700810070006fb897001d
:10404800808060006fb89700808f50000e003a00a3
:10405800afb897005fb8970000807000f0b79f0076
:104068000fb89700900078006fb897000080ea00ba
:10407800808060000fb89700010878000000eb000e
:10408800f0bf9f00110037007fb897000000e000e4
:104098000b003200efb8970000502000810070003c
:1040a8000fb897000080e8007fb99700f810020069
:1040b800000000000000eb00f0b79f00030037008d
:1040c8000fb8970090007800f1b79f007c0e0200af
:1040d80000000000b0bf9f007fb897000000e0001c
:1040e800280032003fb897000000e00003003a00c3
:1040f8002427020000000000000000006a130200ec
:1041080000000000f0b79f00002020007fb197005a
:10411800000061000000e00016003a005c24020084
:10412800000000000fb8970090007800f1b79f00da
:104138006fb897007fb19700800061006fb8970053
:10414800808f500007003a000fb897009000780061
:104158006fb897000080ea00808060000fb8970071
:1041680001087800722402000000000010002000fe
:1041780090bf9f00f00f2000ffb097008080600084
:10418800f1b79f007fb097000080fa00000006009a
:104198001800fa00b0bf9f00c1bf9f00d2bf9f00a8
:1041a800e3bf9f00f4bf9f00bfb89700e1b79f002f
:1041b8000000eb00d0b79f000000eb00f0b79f00b5
:1041c800740e0200000000006fb0970090007800a5
:1041d80081bf9f006fb99700cfb897000fb89700bd
:1041e8001e01070090bf9f001fb897000000e00065
:1041f8000f0032008fb89700c1b79f000000eb0096
:10420800f0bf9f005fb897000000e0002600320072
:104218006fb09700900078004fb897000080ea00d0
:10422800808060006fb09700010878001e0037009a
:104238007fb897000000e00003003a008fb89700ad
:10424800c1b79f00180037005fb897000000e00072
:1042580004003200dfb09700001020000100700059
:10426800d0b79f006fb897000000e000040032004c
:10427800dfb097000040200001007000d0b79f0019
:10428800cfb897005fb09700810070006fb09700bb
:104298000080e8007fb99700f810020000000000d5
:1042a8000000eb00c0b79f007c0e02000000000079
:1042b800a0bf9f007fb897000000e0002b003200ed
:1042c8002fb897000000e00003003a0024270200fe
:1042d80000000000000000006a1302000000000057
:1042e800c0b79f0000202000cfb09700008060007a
:1042f8000000e00019003a005c2402000000000001
:104308006fb0970090007800c1b79f006fb9970011
:10431800cfb897004fb09700d00007000000e0002a
:104328000a0032005fb897000000e0000700320082
:104338006fb09700900078004fb897000080ea00af
:10434800808060006fb09700010878007224020036
:10435800000000000000eb00f0b79f00f00f200005
:10436800cfb0970080806000c1b79f004fb0970022
:104378000080fa00000006000800fa00e0bf9f0075
:10438800f1bf9f00efb89700c1bf9f005c240200f7
:10439800000000004fb8970090007800d1bf9f0040
:1043a8004fb89700900078007fb897000080ea0027
:1043b800808060004fb897000108780072240200de
:1043c800000000005fb897000080fa0000000600b7
:1043d8000800fa00f0bf9f00ffb89700c1bf9f0018
:1043e8000000eb00d0bf9f004fb897009000780006
:1043f800e1bf9f006fb897000080fa000000060038
:104408001600fa00e0bf9f00f1bf9f000000eb001c
:10441800e0b79f00efb8970081bf9f000000eb0056
:10442800f0b79f000fb897000080e80090bf9f008a
:104438001fb8970064004000a0bf9f00740e0200e0
:10444800000000001fb89700b0009000d1b79f008f
:104458000fb89700900078007fb89700810070002f
:104468000fb89700010878003d0037005fb097004b
:1044780090009000b1bf9f005fb097009000780057
:10448800c1bf9f000000eb00f0b79f00cfb89700b6
:1044980000f02f0000806000d0bf9f00cfb89700c9
:1044a800f00f200000806000c0bf9f00dfb89700b9
:1044b80000402000008060000000e00009003a0091
:1044c8000fb89700900078004fb897000080600000
:1044d8000000e0000c00320010002000f0b79f0040
:1044e800090037000fb89700900078004fb8970080
:1044f800808060004fb89700808f500002003a001b
:1045080010002000f0b79f007fb097000000e00087
:1045180011003200dfb89700001020000080600012
:104528000000e00004003200efb097004fb8970099
:1045380001007000e0b79f000fb897009000780066
:104548000020200001007000800078005fb0970014
:104558009611020000000000bfb89700d1b79f0075
:104568002fb89700dfb09700808f5000bfff3a0048
:104578000fb89700900078006fb097000080ea00ad
:10458800808060000fb89700010878007c0e020058
:10459800000000000fb89700100078000080fa00b3
:1045a800000006000600fa00f0bf9f00ffb8970061
:1045b800d1bf9f00dfb897000180e800e0bf9f00ef
:1045c800740e020000000000050037006fb8970065
:1045d8003000900001202000961102000000000029
:1045e8006fb89700100078000000e000f7ff3a006d
:1045f8005fb897000e270200000000007c0e020042
:10460800000000000080fa00000006000600fa0022
:10461800d0bf9f00e2bf9f00f3bf9f006fb8970015
:10462800800078005fb8970075ff07000080fa00e7
:10463800000006000600fa00d0bf9f00e2bf9f00fe
:10464800f3bf9f006fb89700800078005fb89700ad
:1046580049ff07000080fa00000006000800fa0081
:10466800d0bf9f00e1bf9f00f2bf9f000000eb009a
:10467800c0bf9f007fb897000000e00008003a0024
:10468800dfb897006fb89700008060000000e00076
:104698000b00320010002000c0bf9f000800370048
:1046a800dfb897006fb89700808060006fb89700f8
:1046b800808f500002003a0010002000c0bf9f0009
:1046c8004fb897000080fa00000006002a00fa00a0
:1046d800d0bf9f00e1bf9f00f2bf9f00a1fd2f0048
:1046e8008180470022a628000f000900b218780030
:1046f800efb89700c1af9f005fb897004fa9970028
:10470800020878005fb897000080e800d0bf9f00db
:104718005fb897008000eb00010878005fb8970049
:104728000080e800d0bf9f005fb897008000eb00d2
:10473800010878005fb897000080e800d0bf9f00ac
:10474800ffb897005fb89700010878005fb8970036
:104758000080e800d0bf9f000000eb00b0af9f00d2
:104768000e0037003fa897000000400061fd2f00b1
:104778008f80400000804000a00090005fb8970044
:10478800010878005fb897000080e800d0bf9f005c
:104798003fa997000201e800b2af9f003fa8970029
:1047a800ef0f5000efff3600210280005fb897003e
:1047b800010878005fb897000080e800d0bf9f002c
:1047c80034c0bf008080fb005fb897000108780004
:1047d8005fb897000080e800d0bf9f005fb89700df
:1047e8008000eb00010878005fb897000080e800bf
:1047f800d0bf9f005fb897000080fa000000060055
:10480800322402000000000040e580009007780094
:104818004f00780010eb88003400f9004400f900dc
:104828003200f9003600f9004f0778004f06be0045
:104838004f05be004f04be004f03be004f02be002e
:104848004f01be004f00be004200f9000000060004
:104858001000200000000600000006000400fa0016
:10486800f0e1240001002000e0bf9f00f1bf9f009d
:104878000421ef000021ef006fb8970010088800ae
:104888002005800000c0a00000d0a10000e0a10029
:10489800200588008460a9009460a8000481a8000d
:1048a80004a1a90005e1a8000080fa0000000600a4
:1048b800100280000050a0000060a1000070a1005c
:1048c80010028800000000000000000010eb8000cb
:1048d8000000e80010eb88000000060010eb8000e4
:1048e8000000e90010eb880010eb80000000e000f9
:1048f80006003a00100280000050a1000060a100ec
:104908000070a100100288000000000000000600ee
:104918003600f800809fbe00829fbe00849fbe00c4
:10492800869fbe003400f80000002000a001880027
:104938008460a900780f0200000000000000e00079
:1049480003003200242702000000000000000000dd
:104958003400f9004f03be004f02be004f01be00f5
:104968004f00be003600f900004006000200fa00c1
:10497800f0bf9f00ffb89700648040008000780077
:104988007fb89700110098007fb897008080eb00ef
:1049980021009800ffb897006480400080007800ec
:1049a8007fb8970031009800ffb8970064804000f6
:1049b800800078007fb89700410098007fb8970082
:1049c8008000eb00010878000080fa000000060073
:1049d8000200fa00f0bf9f007fb897008000eb004c
:1049e800410098000080fa00000006000600fa0066
:1049f800e0bf9f00f1bf9f006fb897009000900044
:104a0800d1bf9f007fb89700dfb8970011009800ca
:104a18005fb89700a00090007fb897002100980029
:104a28005fb8970020009000ffb897001100980029
:104a38005fb89700ffb89700210098007fb89700eb
:104a4800efb89700410098006fb897001000780001
:104a58008000e8006fb89700010878000080fa002d
:104a6800000006000800fa00e0bf9f00f1bf9f00a9
:104a78007fb8970090007800d1bf9f005fb897007b
:104a8800e10f400004003a006fb89700c0009000a2
:104a9800c1bf9f000d0037006fb897006400400049
:104aa800c0bf9f00030037004fb8970090009000e8
:104ab800c1bf9f004fb89700100090009000780089
:104ac8005fb89700808f5000f7ff36004fb8970007
:104ad800900090007fb89700110098007fb8970069
:104ae80010009000ffb89700210098007fb8970049
:104af800cfb89700210098004fb89700ffb89700eb
:104b0800110098007fb89700efb89700410098000f
:104b18006fb89700100078008000e8006fb8970021
:104b2800010878000080fa00000006000400fa007e
:104b3800f0bf9f007fb8970040009000e0bf9f0043
:104b48007fb8970010009000ffb89700a100900070
:104b5800210098007fb8970020009000ffb89700c8
:104b680091009000110098006fb897009000900095
:104b78007fb89700808f500004003a007fb89700f4
:104b8800a00090006fb89700110098007fb89700b8
:104b98008000eb00410098006fb897001000780083
:104ba8008000e9006fb89700010878006fb8970097
:0c4bb800100078000080fa0000000600e9
:020000040000fa
:104bc40000080000f013000000000000621d000057
:104bd4000200000002000000ef000000441d00007d
:104be4001800000000000000a81c0000760000006f
:104bf400000000001e1d000026000000020000004e
:104c04005d1d0000005d1d000900000000020000a1
:104c14005f1d0000005f1d000e0201000000000087
:104c24000000000000000000060202000000000076
:104c34001e1d00005c1d00000600000000000000b6
:104c4400f01b0000b800000002000000286e750090
:104c54006c6c2900003031003233340035363700b3
:104c64003839610062636400656600000100000079
:104c74000000000000000a00000000000000000026
:104c8400006400000000000000000000e8030000d1
:104c940000000000000010002700000000000000d9
:104ca40000a08600010000000000000040420f0048
:104cb4000000000000008000969800000000000042
:104cc4000000e100f50500000000000000ca9a00a1
:104cd4003b00000000000000e40b54000200000050
:104ce4000000e80076481700000000000010a5004e
:104cf400d4e8000000000000a0724e001809000073
:104d0400000040007a10f3005a0000000080c60042
:104d1400a47e8d000300000000c16f00f286230012
:104d2400000000008a5d7800456301000000640013
:104d3400a7b3b600e00d000000e889000423c70013
:104d44008a000000641d0000020000000200000050
:084d540001000000ca278000e5
:020000040000fa
:104d5c000400fa00f0bf9f000000eb00e0bf9f00d2
:104d6c007fb8970061006000004078000004e0000c
:104d7c0005003200ffb89700e0ff2f0000806000b4
:104d8c000080e800f0bf9f00740e020000000000dd
:104d9c0070df80000000e00004003a002180200059
:104dac00e0ff2f000080600070df880061df800072
:104dbc007fb8970080804000903e2100808f50008b
:104dcc000e003e0061df80007fb8970080804000bd
:104ddc0060df8000808f50000800360071df80009b
:104dec0060df800000804000e0bf9f0061df80003a
:104dfc007fb897000080400060df88007c0e0200c6
:104e0c00000000006fb897000080fa000000060058
:104e1c000200fa00f0bf9f000080fa0000000600bc
:104e2c000000eb0060df88000000060060df8000ff
:104e3c00a13e210000805000000006004200f80056
:104e4c00801f78000002200010028800811f78006b
:104e5c00829fbe00849fbe00869fbe00889fbe00be
:104e6c008a9fbe008c9fbe008e1f78003600f80013
:104e7c003200f8004400f8003400f80010eb800019
:104e8c00801f780040e580000f0878005c1002005d
:104e9c000000000040e58000900778004f0078008b
:104eac0010eb88003400f9004400f9003200f900de
:104ebc003600f9004f0778004f06be004f05be00c4
:104ecc004f04be004f03be004f02be004f01be0098
:104edc004f00be004200f900000006008002eb000b
:104eec00140020008001eb003207200001a02800f4
:104efc00007b22009c0a02000000000090a0280009
:104f0c004803020000000000220e02000000000016
:104f1c00d0a228004803020000000000fcff37006c
:104f2c000060fe00000006000400fa00e0bf9f00d5
:104f3c00f1bf9f00ffb89700811f780000a42800e4
:104f4c00801f78005c03020000000000e48757001b
:104f5c00ffff37000600fa00f0bf9f00200320007f
:104f6c0001002000d0bf9f00e1bf9f005fb89700f9
:104f7c00e40c02000000000020a8280048030200f6
:084f8c0000000000f9ff3700ee
:020000040000fa
:044f94000000000019
:020000040000fa
:020000040005f5
:0457f400ffff0000b3
:020000040000fa
:020000040005f5
:0457f800adf300000d
:020000040000fa
:020000040005f5
:0457fc00ff3f00006b
:00000001FF
